:100000000C94E6010C9403020C9403020C9403027A
:100010000C9403020C9403020C9403020C9403024C
:100020000C9403020C9403020C9403020C9403023C
:100030000C9403020C9403020C9403020C9403022C
:100040000C941E030C9403020C9403020C94030200
:100050000C94BE0F0C9403020C9403020C94030244
:100060000C9403020C9403020C9403020C940302FC
:100070000C9403020C9403020C94030205A84CCDCB
:10008000B2D44EB93836A9020C50B9918688083CD2
:10009000A6AAAA2ABE000000803F5645524C4F52E5
:1000A000454E210D0A00201A202020201B20202050
:1000B00020204578697400202030313233343536C1
:1000C0003738394142434445460D0A007815141526
:1000D000780020555455780038454445380030495B
:1000E000484930003C4140413C00384140217800C3
:1000F0007E1515150A000000000000000000000039
:1001000000000000000000000000000000000000EF
:100110000000000010385410101E00000000000005
:100120001010101010101010107C101000000000A3
:1001300000000000000000000000000000000000BF
:1001400000000000000000000000000000000000AF
:1001500004027F02040010207F2010001038541089
:10016000101010101054381010181C1C18100818FB
:100170003838180800081C3E7F00007F3E1C08002D
:1001800006090909060006497D490600000000002D
:10019000000000002F000000000700070000147F8F
:1001A000147F1400242A6B2A1200231308646200AF
:1001B000364955225000000503000000001C224172
:1001C00000000041221C000014083E08140008082A
:1001D0003E08080000503000000008080808080029
:1001E0000060600000002010080402003E514945F4
:1001F0003E0000427F4000004261514946002141DB
:10020000454B31001814127F100027454545390031
:100210003C4A494930000301710907003649494900
:100220003600064949291E000036360000000056F7
:1002300036000000081422410000141414141400A5
:100240000041221408000201510906003249794197
:100250003E007E1111117E007F49494936003E4122
:10026000414122007F4141221C007F494949410010
:100270007F09090901003E4149497A007F080808C1
:100280007F0000417F4100002040413F01007F0886
:10029000142241007F40404040007F020C027F005A
:1002A0007F0408107F003E4141413E007F0909095B
:1002B00006003E4151215E007F091929460046494A
:1002C0004949310001017F0101003F4040403F00AA
:1002D0001F2040201F003F4038403F006314081497
:1002E00063000708700807006151494543007F41DA
:1002F000410000000204081020000041417F00007E
:100300000402010204004040404040000001020499
:1003100000002054545478007F4844443800384446
:1003200044442000384444487F0038545454180052
:10033000087E090102000C5252523E007F0804045C
:10034000780000447D4000002040443D00007F10C4
:100350002844000000417F4000007C04180478001D
:100360007C08040478003844444438007C14141495
:100370000800081414187C007C0804040800485481
:1003800054542000043F444020003C4040207C0066
:100390001C2040201C003C4038403C0044281028D1
:1003A00044000C5050503C004464544C440000083D
:1003B0003641000000007F000000004136080000C8
:1003C00008082A1C0800081C2A08080011241FBE5F
:1003D000CFEFD0E1DEBFCDBF11E0A0E0B1E0E6E1BC
:1003E000F7E202C005900D92AC30B107D9F716E0E4
:1003F000ACE0B1E001C01D92AB37B107E1F70E945C
:1004000005020C9489130C9400002F923F924F9296
:100410005F926F927F928F929F92AF92BF92CF9294
:10042000DF92EF92FF920F93DF93CF9300D000D033
:1004300000D0CDB7DEB782B1806F82B93B9A439AC4
:1004400087B1836087B9579A0E9434040E940610CE
:100450000E94800378940E94F1038AE090E09C83DC
:100460008B83E1E0F0E0FA83E98397E1892E912C18
:100470008AE2A82EB12C03E0602E712CB1E04B2E45
:10048000512C8BE190E09E838D83AEEF2A2EAFEF4F
:100490003A2E280C391C10C01E141F042CF4ED81B8
:1004A000FE813197FE83ED83FAE0CF2ED12C8D8132
:1004B0009E81C80ED91E7C0180E10E949A03882388
:1004C00059F780E20E949A038823B1F090E4C9169C
:1004D000D1042CF4ED81FE813196FE83ED83EAE0B8
:1004E000CE2ED12C8D819E81C80ED91E7C0180E23A
:1004F0000E949A03882351F78AE06D8142E02AE046
:1005000001E00E945D0780E0AC14BD040CF481E0C2
:1005100090E0EA14FB040CF491E0892390E020E0E1
:1005200030E0EDE02E16310414F421E030E08223B7
:100530009323892B21F07094619471087394FEE7E2
:100540008F16910424F070946194710873941214BE
:1005500013040CF043C0860C971C0B81C501EEE31D
:10056000AE16B10424F4F3E0AF16B10424F45094B1
:100570004194510853945201A80EB91EC401B5010B
:1005800042E050E00E94920880E060E0402F0E942C
:10059000FC0988E790E00E9425040E94F10389810C
:1005A0009A81892B09F071CF80E090E026960FB6F2
:1005B000F894DEBF0FBECDBFCF91DF910F91FF90BA
:1005C000EF90DF90CF90BF90AF909F908F907F90F3
:1005D0006F905F904F903F902F9008958B819C81FA
:1005E00001979C838B83892B69F00B818AE290E0D1
:1005F00073E0672E712C61E0462E512C5AE1852E56
:10060000912CADCF0E94F10382E063E04AE950E013
:1006100020E00E94E80588E893E10E9425041A8200
:1006200019828AE290E043E0642E712C31E0432E7F
:10063000512C2AE1822E912C00E091CF1F920F9233
:100640000FB60F9211242F933F938F939F9320B156
:1006500030910C01209523279091100192239095C1
:100660009093100180910F018223892780930F01BD
:1006700092239823292F232720930C0192238091E2
:100680000D01892B80930D01207F51F581E380932B
:100690000E0180915F0190916001892B49F080915A
:1006A0005F019091600101979093600180935F01D9
:1006B0008091610190916201892B49F080916101E3
:1006C00090916201019790936201809361019F91E3
:1006D0008F913F912F910F900FBE0F901F90189503
:1006E00080910E01815080930E01882391F68AE05B
:1006F00080930E0180916301822B80936301C9CFA7
:100700001092600110925F0182E084BD85E085BD9A
:1007100083EC87BDEEE6F0E08081826080830895FF
:100720002FB7F89490910D018923982790930D018C
:100730002FBF08952FB7F8949091630189239827CC
:10074000909363012FBF08954FB7F8943FB7F89483
:1007500020910D0190910C019095892382232827E7
:1007600020930D013FBF4FBF08952FB7F89490918C
:10077000630189239827909363012FBF2FB7F894C3
:1007800090910D018923982790930D012FBF089513
:1007900020910D013FB7F89490916301822789233E
:1007A0009827909363013FBF9FB7F894822328272F
:1007B00020930D019FBF08953FB7F89420916301E6
:1007C00090910D019095892782232827209363011A
:1007D0003FBF08952C988EBD0DB407FEFDCF2C9A17
:1007E00008951F93CF93DF9380E090E0FC01EA59D6
:1007F000FE4F1082019624E080309207B9F710EB8B
:100800002B98812F0E94EA0380E10E94EA038091E5
:1008100065010E94EA032B9AC0E0D0E080E00E94CC
:10082000EA032196C038D105C9F71F5F183B41F78D
:1008300010926A0510926B05DF91CF911F91089578
:1008400088E893E10197F1F70895009761F020E0BF
:1008500030E048E853E1FA013197F1F72F5F3F4F5D
:1008600028173907C0F3089510926A0510926B0596
:100870008FEF84B98CE58CBD81E08DBD2C9A2A98D0
:1008800020E030E048E853E1CA010197F1F72F5F1B
:100890003F4F2A303105C1F72A9A2C982B9880E4D3
:1008A0000E94EA0380916501882351F180EA0E9449
:1008B000EA0388EC0E94EA0386EA0E94EA0382EADD
:1008C0000E94EA038FE20E94EA0388EF0E94EA0393
:1008D00080E00E94EA0387E20E94EA0381E80E9426
:1008E000EA0386E10E94EA038CEA0E94EA0380E0C0
:1008F0000E94EA038FEA0E94EA030E94F10308952E
:1009000081EA0E94EA0380EC0E94EA03D5CFFF92BD
:100910000F931F938C01F62E2B98880F892F881F19
:10092000990B919580550E94EA03809165010F779C
:10093000080F802F82958F70805F0E94EA03802FBE
:100940008F700E94EA032B9A8F2D0E94EA031F9159
:100950000F91FF900895CF93DF93C0E0D0E0FE01A8
:10096000EA51FE4F8081FE01EA59FE4F808360818B
:10097000CE010E948704219683E0C038D80779F71A
:10098000FE01EA59FE4F1082CE0160E00E9487040A
:10099000219684E0C030D80799F7DF91CF91089570
:1009A000EF92FF920F931F93CF93DF93582FE22E76
:1009B0004F3D09F487C0403E08F450C0463F09F45B
:1009C00087C04C3F09F454C0443E09F47EC04F77C1
:1009D000842F90E09C01220F331F280F391F220F14
:1009E000331FC62FD0E0D695DC2FCC27D795C795DF
:1009F00086E0589FC0011124C80FD91FD370890108
:100A000004531F4FFF2415C0EE2009F453C081E0AA
:100A1000E81609F448C0FE01EA59FE4F6081CE0194
:100A20000E948704F3940F5F1F4F219686E0F8160B
:100A300061F1F8019491F2E0EF1671F1FE1520F7E3
:100A4000E3E0EE16D9F0F4E0EF1629F7FE01EA59DB
:100A5000FE4F8081909589238083E0CF463D79F1D8
:100A60004C3D49F0443C09F0B2CF20E030E0B9CF32
:100A70002EE130E0B6CF28E130E0B3CFFE01EA59F5
:100A8000FE4F808189238083C9CFDF91CF911F9151
:100A90000F91FF90EF900895FE01EA59FE4F80817B
:100AA00089278083BBCFFE01EA59FE4F8081892BC5
:100AB0008083B4CFFE01EA59FE4F9083AFCF2CE084
:100AC00030E08FCF24EB30E08CCF26E030E089CFD0
:100AD00022E130E086CF80916B058F5F80936B05BC
:100AE000883008F408950E94AB0487E080936B057A
:100AF00008951F93CF93DF93EC01162FFC0184918F
:100B00008823C1F422C04D3071F080916A05609154
:100B10006B05212F0E94D00480916A058F5F80931E
:100B20006A05853110F010926A052196FE018491C4
:100B3000882359F0FE0144914A3029F70E946B0541
:100B40002196FE0184918823A9F7DF91CF911F910F
:100B5000089580936A0560936B05CA01622F0E9415
:100B6000790508951F93CF93DF93EC01162FFC01B5
:100B700084918823B1F420C04D3011F180916A0531
:100B800060916B05212F0E94D00480916A058F5FD0
:100B900080936A058531B8F42196FE0184918823FB
:100BA00059F0FE0144914A3039F70E946B052196B5
:100BB000FE0184918823A9F7DF91CF911F910895B9
:100BC00010926A05E9CF10926A050E946B05EFCF7B
:100BD00080936A0560936B05CA01622F0E94B2057B
:100BE00008951F93CF93DF93EC01162F4881442380
:100BF000A9F41CC04D30F1F080916A0560916B053D
:100C0000212F0E94D00480916A058F5F80936A052E
:100C1000853198F421964881442341F04A3051F7B8
:100C20000E946B05219648814423C1F7DF91CF9143
:100C30001F91089510926A05EDCF10926A050E94E7
:100C40006B05F0CF80936A0560936B05CA01622F34
:100C50000E94F1050895CF93DF93EC01488144236E
:100C600029F41AC0219648814423B1F080916A0585
:100C700060916B0520E00E94D00480916A058F5F2F
:100C800080936A05843170F310926A050E946B05A7
:100C900021964881442351F7DF91CF9108958093A5
:100CA0006A0560936B05CA010E942B060895982F70
:100CB00087FD26C0603420F5862F8695869586951B
:100CC000282F30E03695322F222737952795290F88
:100CD000311D677081E090E0582F01C0550F6A9573
:100CE000EAF7652F33704130A1F0413050F04230C7
:100CF000B9F0F901EA59FE4F6081C9010E948704E9
:100D00000895F901EA59FE4F80816095862380831A
:100D1000F3CFF901EA59FE4F8081852B8083ECCF18
:100D2000F901EA59FE4F808185278083E5CF2F9214
:100D30003F924F925F926F927F928F929F92AF926B
:100D4000BF92CF92DF92EF92FF920F931F93DF93A8
:100D5000CF9300D00F92CDB7DEB70B83482E55242A
:100D6000862E9924A42FB0E0BA83A983AD0144193B
:100D70005509222E332491012819390957FD95C0B0
:100D8000FA014115510509F07BC03F0137FD7BC0D9
:100D9000F9012115310509F070C05F016A0157FDA5
:100DA00078C0790137FD7CC04B810E945706EC1456
:100DB000FD04F4F5E981FA814E165F0619F1C601CA
:100DC000D7FC79C09595879500271127081B190B2B
:100DD000460C571C0E0D1F1D1016110624F48A0C0C
:100DE0009B1C0C191D09842D682D4B810E945706F0
:100DF000460C571CC2018619970929813A81281788
:100E0000390741F70F900F900F90CF91DF911F910D
:100E10000F91FF90EF90DF90CF90BF90AF909F9099
:100E20008F907F906F905F904F903F902F9008959C
:100E30008214930439F3C701F7FC3BC0959587955D
:100E400000271127081B190B8A0C9B1C0C0D1D1D5C
:100E50001016110624F4460C571C0E191F09842D78
:100E6000682D4B810E9457068A0C9B1CC4018A196D
:100E70009B092816390651F7C5CFE1E0F0E08DCF88
:100E8000E1E0F0E082CFAA24AA94BA2C6A0157FFCD
:100E900088CFD094C194D108D394790137FF84CFFF
:100EA000F094E194F108F3947FCF66246A94762C51
:100EB0006DCF0196C3CF019685CFCF92DF92EF928F
:100EC000FF920F931F93CF93DF93D82E942F822FEF
:100ED000C02ED7FC32C04D2D50E0603408F06FE3D7
:100EE000262F30E07901E80EF11C81E4E816F104C8
:100EF00018F010E4E12EF12CE901E216F30688F077
:100F0000490F511D41385105A8F4142F8D2D6C2F18
:100F1000412F2C2F0C2D0E9497062196EC16FD06D2
:100F2000A8F7DF91CF911F910F91FF90EF90DF9085
:100F3000CF90089540E850E0E8CF0FE7D02E4FE77C
:100F400050E0CBCFDF92EF92FF920F931F93CF939E
:100F5000DF93F82E842FD02EF7FC38C04F2D50E0B1
:100F6000162F603408F01FE3C12FD0E0C20FD11D4F
:100F7000480F511D4138510510F040E850E0E42E73
:100F80008F2D612F212F0D2D0E949706C134D10581
:100F900010F0C0E4D0E08E2D612F4E2D2C2F0D2DA2
:100FA0000E9497068E2D6C2F4F2D2C2F0E94970696
:100FB0008F2D6C2F4F2D212F0E949706DF91CF91FF
:100FC0001F910F91FF90EF90DF9008959FE7F92E0A
:100FD0004FE750E0C5CF2F923F924F925F926F92B2
:100FE0007F928F929F92AF92BF92CF92DF92EF92B9
:100FF000FF920F931F93CF93DF93482E562E7A01C3
:10100000C22E642F650D422F0E945706652D6E1962
:10101000842D4C2D0E9457068E2D840D652D4C2D50
:101020000E945706842D8E19652D4C2D0E9457065F
:101030001E141F040CF063C0C1E0D0E0CE19DF091C
:10104000C701880F991F22243324281A390A47011F
:10105000AA24BB2423E0622E712C06C0C60DD71D26
:1010600082E090E0680E791ED7FD09C008948108DF
:10107000910882E090E0280E391EC20DD31D08941D
:10108000A11CB11CDA2CD40C182D150D8D2D612F3F
:101090004C2D0E945706E42CEA188E2D612F4C2D02
:1010A0000E945706152D18198D2D612F4C2D0E9469
:1010B00057068E2D612F4C2D0E945706E82CE40C0C
:1010C0001A2D150D8E2D612F4C2D0E945706942D33
:1010D0009819092F892F612F4C2D0E945706152D25
:1010E0001A198E2D612F4C2D0E945706802F612FCB
:1010F0004C2D0E945706A814B9040CF4AFCFDF9111
:10110000CF911F910F91FF90EF90DF90CF90BF9004
:10111000AF909F908F907F906F905F904F903F9097
:101120002F9008952F923F925F926F927F928F92AD
:101130009F92AF92BF92CF92DF92EF92FF920F9366
:101140001F93CF93DF93582EC62E7A01642F6C0D18
:101150002C2D241B452D01E00E949706452D4E198C
:101160008E2D850D6C2D2C2D0E9497061E141F04AC
:101170000CF04FC0C1E0D0E0CE19DF09C701880FE5
:10118000991F22243324281A390A4701AA24BB2490
:1011900043E0642E712C06C0C60DD71D82E090E09E
:1011A000680E791ED7FD09C008948108910882E075
:1011B00090E0280E391EC20DD31D0894A11CB11C4D
:1011C000EA2CE50CD52CDA18282D2C0D8E2D622F4B
:1011D0004D2D01E00E9497062C2D28198E2D622F8F
:1011E0004D2D0E949706E82CE50C952D9819192F86
:1011F0002A2D2C0D8E2D622F492F0E9497062C2D03
:101200002A198E2D622F412F0E949706A814B90427
:101210001CF2DF91CF911F910F91FF90EF90DF9023
:10122000CF90BF90AF909F908F907F906F905F9086
:101230003F902F900895CF92DF92EF92FF920F93FD
:101240001F93CF93DF93082F0E94F10387EB90E069
:1012500060E00E94B20510926A0587E080936B05FA
:1012600086EA90E060E00E94790582E080936B0559
:1012700010E07801EE0CFF1CEE0CFF1C68010894D6
:10128000C11CD11CCC0CDD1CCC0CDD1CEC14FD04F1
:1012900094F51E2D1295107F02E08AE0E816F10405
:1012A0009CF54E2D405D80E060916B0520E00E9432
:1012B000D00400936A05C0E0D0E0412F4C0F80912C
:1012C0006A0560916B0520E00E94D00480916A0558
:1012D0008F5F80936A052196C031D10571F78091A7
:1012E0006B058F5F80936B050894E11CF11C105F08
:1012F000EC14FD0494F2DF91CF911F910F91FF90B8
:10130000EF90DF90CF9008954E2D495C80E0609182
:101310006B0520E00E94D004CCCF8A3010F0895CAD
:101320000895805D08950F931F93142F022F6093EB
:101330006B058F5F80936A05815042954F704A30EC
:1013400098F4405D202F0E94D00480916A0560913E
:101350006B05412F4F704A3048F0495C202F0E94A6
:10136000D0041F910F910895495CECCF405D202F70
:101370000E94D0041F910F910895FF920F931F9325
:10138000CF93DF93F82E04E620E0C0E0D0E08F2D6D
:10139000602F0E942213182F8823C9F42223B9F446
:1013A0000130A9F0802F6AE00E942213982F219625
:1013B000C330D105D9F0109F802D1124F81A092FC0
:1013C0008F2D602F0E942213182F882339F38091CC
:1013D0006A058F5F80936A058150412F405D60915F
:1013E0006B0520E00E94D00421E0DCCFDF91CF919B
:1013F0001F910F91FF90089580936A0560936B058C
:10140000842F0E94BD090895BF92CF92DF92EF9280
:10141000FF920F931F93CF93DF93C82EB62E7A01BE
:10142000CA0164E670E00E942E13062F14E6C0E0A5
:10143000D0E0402F405D8C2D6B2D20E00E94D00429
:10144000812F6AE00E942213D82EC230D105A9F064
:101450002C2D2F5F109FC0011124E81AF90A8D2D41
:101460008A508A30A0F0C22EC7016D2D70E00E9414
:101470002E13062F21961D2DDCCFDF91CF911F91CA
:101480000F91FF90EF90DF90CF90BF900895C22E04
:10149000C394822F6B2D4EE220E00E94D004E4CF53
:1014A0007F928F929F92AF92BF92CF92DF92EF92F4
:1014B000FF920F931F93DF93CF93CDB7DEB727979C
:1014C0000FB6F894DEBF0FBECDBFF82EE62ECA01D0
:1014D00069014E010894811C911CB4014AE050E05E
:1014E0000E944213F40101900020E9F731977E2E0B
:1014F0007818A72CBB24CA14DB040CF464C0CA18E7
:10150000DB081C141D0414F5F39410E00EC06E2DBE
:1015100040E320E00E94D0041F5F2F2D2F5F812F1A
:1015200090E08C159D0594F4F22E8F2D81500023B0
:1015300071F76E2D40E220E00E94D0041F5F2F2D36
:101540002F5F812F90E08C159D0574F3F501319785
:10155000E80DF91D0081108281E0781609F448C079
:1015600082E0781621F489818D3209F449C0F09225
:101570006A05E0926B05C40160E00E94F105172D39
:1015800011501F0D812F6E2D4EE220E00E94D004DD
:10159000812F8F5F6E2D402F20E00E94D004279670
:1015A0000FB6F894DEBF0FBECDBFCF91DF911F9174
:1015B0000F91FF90EF90DF90CF90BF90AF909F90F2
:1015C0008F907F9008951C141D044CF710E001C00B
:1015D000F02E0F2D0F5F8F2D6E2D4AE220E00E941E
:1015E000D0041F5F812F90E08C159D058CF3D7CF21
:1015F0008F2D81506E2D40E320E00E94D004BFCF9C
:101600008F2D81506E2D4DE220E00E94D0048F2D51
:101610006E2D40E320E00E94D004B1CF7F928F92E4
:101620009F92AF92BF92CF92DF92EF92FF920F9371
:101630001F93DF93CF93CDB7DEB727970FB6F894FC
:10164000DEBF0FBECDBFF82EE62ECA0169014E01E6
:101650000894811C911CB4014AE050E00E9442139E
:10166000F40101900020E9F731977E2E7818A72C1D
:10167000BB24CA14DB040CF464C0CA18DB081C14B5
:101680001D0414F5F39410E00EC06E2D40E320E02D
:101690000E94D0041F5F2F2D2F5F812F90E08C15AB
:1016A0009D0594F4F22E8F2D8150002371F76E2D3D
:1016B00040E220E00E94D0041F5F2F2D2F5F812F7A
:1016C00090E08C159D0574F3F5013197E80DF91D37
:1016D0000081108281E0781609F448C082E0781613
:1016E00021F489818D3209F449C0F0926A05E092B3
:1016F0006B05C40160E00E94F105172D11501F0D0C
:10170000812F6E2D4EE220E00E94D004812F8F5F4A
:101710006E2D402F20E00E94D00427960FB6F8943B
:10172000DEBF0FBECDBFCF91DF911F910F91FF9014
:10173000EF90DF90CF90BF90AF909F908F907F9071
:1017400008951C141D044CF710E001C0F02E0F2D5D
:101750000F5F8F2D6E2D4AE220E00E94D0041F5FA4
:10176000812F90E08C159D058CF3D7CF8F2D815064
:101770006E2D40E320E00E94D004BFCF8F2D81501A
:101780006E2D4DE220E00E94D0048F2D6E2D40E39F
:1017900020E00E94D004B1CFAF92BF92CF92DF92EF
:1017A000EF92FF920F931F93DF93CF93CDB7DEB7E6
:1017B00027970FB6F894DEBF0FBECDBF182FC62EE9
:1017C000CA017901D02E5E010894A11CB11CB5019B
:1017D0004AE050E00E944213F50101900020E9F731
:1017E0003197EA192E2F30E0E216F3060CF440C0D0
:1017F000E21AF30A1E141F0414F51F5F00E00EC066
:101800006C2D40E320E00E94D0040F5F212F2F5F5A
:10181000802F90E08E159F0594F4122F812F815018
:10182000DD2071F76C2D40E220E00E94D0040F5FB4
:10183000212F2F5F802F90E08E159F0574F310935A
:101840006A05C0926B05C50160E00E94F10527960C
:101850000FB6F894DEBF0FBECDBFCF91DF911F91C1
:101860000F91FF90EF90DF90CF90BF90AF900895D1
:101870001E141F0464F700E001C01D2DD12ED39467
:10188000812F6C2D4AE220E00E94D0040F5F802F50
:1018900090E08E159F058CF3DACFAF92BF92CF9276
:1018A000DF92EF92FF920F931F93DF93CF93CDB709
:1018B000DEB727970FB6F894DEBF0FBECDBF182F47
:1018C000C62ECA017901D02E5E010894A11CB11C5C
:1018D000B5014AE050E00E946313F5010190002039
:1018E000E9F73197EA192E2F30E0E216F3060CF4EF
:1018F00040C0E21AF30A1E141F0414F51F5F00E033
:101900000EC06C2D40E320E00E94D0040F5F212F19
:101910002F5F802F90E08E159F0594F4122F812F5A
:101920008150DD2071F76C2D40E220E00E94D00450
:101930000F5F212F2F5F802F90E08E159F0574F38E
:1019400010936A05C0926B05C50160E00E94F10525
:1019500027960FB6F894DEBF0FBECDBFCF91DF91B3
:101960001F910F91FF90EF90DF90CF90BF90AF90BD
:1019700008951E141F0464F700E001C01D2DD12E30
:10198000D394812F6C2D4AE220E00E94D0040F5F97
:10199000802F90E08E159F058CF3DACF2F923F9227
:1019A0004F925F926F927F928F929F92AF92BF926F
:1019B000CF92DF92EF92FF920F931F93DF93CF931B
:1019C000CDB7DEB760970FB6F894DEBF0FBECDBFC0
:1019D0008D876E877A013901C02E449F9001459F03
:1019E000300D549F300D112438872F83669CC00121
:1019F000679C900D769C900D11249E838D83269D6F
:101A00005001279DB00C369DB00C1124F501EE0F4E
:101A1000FF1FFC83EB83660D8D85402F0E945706C8
:101A20006E8566198D85402F0E9457068D858E0D17
:101A30006E85402F0E9457068D858E196E85402F2A
:101A40000E9457062B813C81121613060CF060C1D0
:101A50006D817E816A197B09882777FD8095982F93
:101A60000E9475117B018C01EF81F885BF018827E9
:101A700077FD8095982F0E94751120E030E040E8B6
:101A80005EE30E943A129B01AC01C801B7010E94BB
:101A900073100E949D120E944211788B6F878D8077
:101AA0009E80880C991C8F819885880F991F22270A
:101AB0003327281B390B3C872B87AD80BE80A80CB1
:101AC000B91C1301442455246624772409C0C50198
:101AD00088199909EF85F889E80FF91FF88BEF87C6
:101AE0008F85988997FD0FC0089421083108EB81F4
:101AF000FC812B853C85E20FF31FFC83EB838E1B5F
:101B00009F0B988B8F870894611C711C480C591C83
:101B10000D85060DEE84E20C802F6E2D4C2D0E945B
:101B20005706FE84F218802F6F2D4C2D0E94570609
:101B30001D851619812F6E2D4C2D0E945706812F61
:101B40006F2D4C2D0E945706A80CB91C8B819C81CF
:101B5000481659060CF4BBCF93015101121413041B
:101B60000CF0BDC0B901882777FD8095982F0E94A1
:101B7000751120E030E040E05FE30E9473107B01CC
:101B80008C010894A108B1082D813E81B9018827F4
:101B900077FD8095982F0E947511A80197010E94EA
:101BA0003A129B01AC01C801B7010E943A127B01B5
:101BB0008C01AA9CC001AB9C900DBA9C900D112485
:101BC000EF81F8858E9FB0018F9F700D9E9F700DE5
:101BD0001124882777FD8095982F0E9475119B010D
:101BE000AC01C801B7010E9473107B018C012D81EB
:101BF0003E818F819885289FB001299F700D389F65
:101C0000700D1124882777FD8095982F0E947511FB
:101C10009B01AC01C801B7010E9472100E949D1285
:101C20000E9442114B018F819885880F991FEE27E2
:101C3000FF27E81BF90BFA83E9832D813E81220FF0
:101C4000331F3A872987C1010197988B8F871F011E
:101C50003094219431083394AF80B884AE1ABF0A0F
:101C6000EB81FC81AE1ABF0A2DC00D85060D1F85C4
:101C7000EE84E10E802F6E2D4C2D0E945706FE84BF
:101C8000F11A802F6F2D4C2D0E9457061D851619B5
:101C9000812F6E2D4C2D0E945706812F6F2D4C2DBC
:101CA0000E9457068F8598890197988B8F87A20C81
:101CB000B31C8F5F9F4F99F089819A818A0D9B1D7C
:101CC000880E991E1814190484F20894611C711C62
:101CD00029853A85420E531E840C951CC6CF60960A
:101CE0000FB6F894DEBF0FBECDBFCF91DF911F912D
:101CF0000F91FF90EF90DF90CF90BF90AF909F90AB
:101D00008F907F906F905F904F903F902F900895AD
:101D10005301130120E030E0442455246624772445
:101D20001DCF0F93FA01022F4D5F5F4F9F010E945D
:101D3000CE0C0F9108952F923F924F925F926F9227
:101D40007F928F929F92AF92BF92CF92DF92EF924B
:101D5000FF920F931F93DF93CF930F92CDB7DEB710
:101D6000382E262E4983422EB8010E2D80E090E0B9
:101D70000E9473112BED3FE049E450E40E943A12B7
:101D800020E030E044E353E40E94DA106B017C0170
:101D9000C7010E94D7104B015C01552466247724AB
:101DA000C301B2010E9473119B01AC01C501B401D2
:101DB0000E943A120E949D124B015C01B601C701BC
:101DC0000E94BD126B017C012981622F70E080E0CE
:101DD00090E00E9473119B01AC01C701B6010E9403
:101DE0003A120E949D120E944711132D160FC50131
:101DF000B4010E944711222D261B832D622D412FF5
:101E00000E9497060F90CF91DF911F910F91FF9045
:101E1000EF90DF90CF90BF90AF909F908F907F908A
:101E20006F905F904F903F902F900895EF920F9397
:101E30001F93942FF901E02E4D5F292F8F010E94EF
:101E40009B0E1F910F91EF9008952F923F924F920A
:101E50005F926F927F928F929F92AF92BF92CF923A
:101E6000DF92EF92FF920F931F93382E262E442E6F
:101E700040E050E0CA01B9010E9473112BED3FE030
:101E800049E450E40E943A1220E030E044E353E495
:101E90000E94DA106B017C01C7010E94D7104B0130
:101EA0005C01552466247724C301B2010E9473119A
:101EB0002B013C01C501B401A30192010E943A1219
:101EC0000E949D124B015C01B601C7010E94BD1228
:101ED0009B01AC01C301B2010E943A120E949D1203
:101EE0000E944711132D160FC501B4010E9447111E
:101EF000222D261B832D622D412F0E9497061F91B4
:101F00000F91FF90EF90DF90CF90BF90AF909F9098
:101F10008F907F906F905F904F903F902F9008959B
:101F2000DC0120915B0130915C0180915D01909119
:101F30005E012817390701F1E0915D01F0915E0122
:101F400080818C9380915D0190915E0101969093C8
:101F50005E0180935D0180915D0190915E018B55E2
:101F6000914011F081E008958BE191E090935E0142
:101F700080935D0181E0089580E008951F920F92A3
:101F80000FB60F9211242F933F934F938F939F93EC
:101F9000EF93FF934091C60020915B0130915C016B
:101FA00080915D0190915E01281B390B37FD24C0A3
:101FB0002F333105ACF4E0915B01F0915C0140837B
:101FC00080915B0190915C01019690935C018093FC
:101FD0005B0180915B0190915C018B55914079F0A0
:101FE000FF91EF919F918F914F913F912F910F9082
:101FF0000FBE0F901F901895205C3F4FD9CF8BE1FB
:1020000091E090935C0180935B01EACF1092C50050
:102010008AE08093C4008091C0008D7F8093C000CF
:1020200086E08093C2008091C1008B7F8093C100C5
:102030008091C00087FF06C08091C6008091C000DB
:1020400087FDFACF8091C10088618093C1008091A3
:10205000C10080688093C1008BE191E090935E01A4
:1020600080935D0180915D0190915E0190935C0190
:1020700080935B010895E1ECF0E08081877F8083AD
:1020800023982B980895239A2B98E1ECF0E0808117
:10209000886080830895982F8091C00085FFFCCFD1
:1020A0009093C6000895FC019081992351F080918E
:1020B000C00085FFFCCF9093C60031969081992394
:1020C000B1F70895FC018491882359F0949180918F
:1020D000C00085FFFCCF9093C60031968491882381
:1020E000A9F708955058BB27AA270ED078C141D12F
:1020F00030F046D120F031F49F3F11F41EF436C188
:102100000EF4E095E7FB2CC1E92F8BD180F3BA17D1
:10211000620773078407950718F071F49EF5A3C151
:102120000EF4E0950B2EBA2FA02D0B01B9019001F2
:102130000C01CA01A0011124FF27591B99F0593F36
:1021400050F4503E68F11A16F040A22F232F342F7E
:102150004427585FF3CF469537952795A795F040CC
:102160005395C9F77EF41F16BA0B620B730B840BE1
:10217000BAF09150A1F0FF0FBB1F661F771F881F99
:10218000C2F70EC0BA0F621F731F841F48F48795F1
:1021900077956795B795F7959E3F08F0B3CF9395E0
:1021A000880F08F09927EE0F979587950895F0D03E
:1021B000E39526C10CD013C1E3D040F0DAD030F063
:1021C00021F45F3F19F0CCC051114EC1CFC029D1CD
:1021D00098F39923C9F35523B1F3951B550BBB27EE
:1021E000AA2762177307840738F09F5F5F4F220F9B
:1021F000331F441FAA1FA9F333D00E2E3AF0E0E894
:1022000030D091505040E695001CCAF729D0FE2FDF
:1022100027D0660F771F881FBB1F26173707480771
:10222000AB07B0E809F0BB0B802DBF01FF27935827
:102230005F4F2AF09E3F510568F092C015C15F3F85
:10224000ECF3983EDCF3869577956795B795F7950F
:102250009F5FC9F7880F911D9695879597F9089507
:10226000E1E0660F771F881FBB1F621773078407A3
:10227000BA0720F0621B730B840BBA0BEE1F88F7B2
:10228000E095089504D06894B111EEC00895D1D0BE
:1022900088F09F5790F0B92F9927B751A0F0D1F04F
:1022A000660F771F881F991F1AF0BA95C9F712C0D9
:1022B000B13081F0D8D0B1E00895D5C0672F782F24
:1022C0008827B85F39F0B93FCCF386957795679545
:1022D000B395D9F73EF490958095709561957F4FB1
:1022E0008F4F9F4F0895E89409C097FB3EF4909557
:1022F0008095709561957F4F8F4F9F4F9923A9F0DF
:10230000F92F96E9BB279395F6958795779567956D
:10231000B795F111F8CFFAF4BB0F11F460FF1BC0B1
:102320006F5F7F4F8F4F9F4F16C0882311F096E944
:1023300011C0772321F09EE8872F762F05C06623F2
:1023400071F096E8862F70E060E02AF09A95660FAB
:10235000771F881FDAF7880F9695879597F9089564
:1023600097F99F6780E870E060E008959FEF80EC48
:10237000089500240A9416161706180609060895EB
:1023800000240A9412161306140605060895EECFCB
:1023900050D0E8F3E894E0E0BB279F57F0F02AED37
:1023A0003FE049EC06C0EE0FBB0F661F771F881F8A
:1023B00028F0B23A62077307840728F0B25A620B1A
:1023C000730B840BE3959A9572F7803830F49A95E5
:1023D000BB0F661F771F881FD2F79048F1C0092EE8
:1023E0000394000C11F4882352F0BB0F40F4BF2B70
:1023F00011F460FF04C06F5F7F4F8F4F9F4F0895B0
:10240000EF93E0FF06C0A2EA2AED3FE049EC5FEB64
:102410007BDEE5DF0F90039401FC9058ECE7F0E0E1
:10242000DBC057FD9058440F551F59F05F3F71F0C6
:102430004795880F97FB991F61F09F3F79F087952B
:102440000895121613061406551FF2CF4695F1DFB4
:1024500008C0161617061806991FF1CF8695710544
:10246000610508940895E894BB2766277727CB0178
:1024700097F908950BD0B3CF7CDF28F081DF18F0F7
:10248000952309F06DCF72CF1124EECFCADFA0F3F0
:10249000959FD1F3950F50E0551F629FF001729FF9
:1024A000BB27F00DB11D639FAA27F00DB11DAA1F18
:1024B000649F6627B00DA11D661F829F2227B00D65
:1024C000A11D621F739FB00DA11D621F839FA00DF0
:1024D000611D221F749F3327A00D611D231F849F40
:1024E000600D211D822F762F6A2F11249F57504097
:1024F0008AF0E1F088234AF0EE0FFF1FBB1F661F32
:10250000771F881F91505040A9F79E3F510570F0EA
:1025100027CFAACF5F3FECF3983EDCF38695779503
:102520006795B795F795E7959F5FC1F7FE2B880FE5
:10253000911D9695879597F908957BDFE0F09E377A
:10254000D8F09639B8F49E3848F4672F782F88274A
:10255000985FF9CF86957795679593959539D0F3E0
:10256000B62FB1706B0F711D811D20F48795779583
:102570006795939508C022C077CF9F9309DF0F908E
:1025800007FCEE5F3DCF882371F4772321F098504C
:10259000872B762F07C0662311F499270DC0905121
:1025A000862B70E060E02AF09A95660F771F881FEF
:1025B000DAF7880F9695879597F908959F3F31F040
:1025C000915020F4879577956795B795880F911D61
:1025D0009695879597F908959F938F937F936F931F
:1025E000FF93EF939B01AC0145DFEF91FF9105D085
:1025F0002F913F914F915F913DCFDF93CF931F93E9
:102600000F93FF92EF92DF927B018C01689405C0DB
:10261000DA2EEF013BDFFE01E894A591259135917B
:1026200045915591AEF3EF016FDDFE019701A801D1
:10263000DA9479F7DF90EF90FF900F911F91CF918F
:10264000DF910895991B79E004C0991F961708F04F
:10265000961B881F7A95C9F780950895AA1BBB1B06
:1026600051E107C0AA1FBB1FA617B70710F0A61B92
:10267000B70B881F991F5A95A9F780959095BC01B3
:10268000CD010895FB019F01E8944230C4F045322A
:10269000B4F44A3029F497FB1EF4909581959F4F2E
:1026A000642F77270E942E13805D8A330CF0895D9A
:1026B0008193CB010097A1F716F45DE2519310824C
:1026C000C9010C947913FB019F01423074F045322B
:1026D00064F4642F77270E942E13805D8A330CF0F8
:1026E000895D8193CB010097A1F71082C9010C94F9
:1026F0007913DC01FC01672F71917723E1F73297A1
:1027000004C07C916D9370836291AE17BF07C8F3CC
:062710000895F894FFCFCC
:0C2716006A1838017102380171020100DC
:00000001FF
