:100000000C9403020C9420020C9420020C94200205
:100010000C9420020C9420020C9420020C942002D8
:100020000C9420020C9420020C9420020C942002C8
:100030000C9420020C9420020C9420020C942002B8
:100040000C9485020C9420020C9420020C94200243
:100050000C94440E0C9420020C9420020C94200268
:100060000C9420020C9420020C9420020C94200288
:100070000C9420020C9420020C94200205A84CCD74
:10008000B2D44EB93836A9020C50B9918688083CD2
:10009000A6AAAA2ABE000000803F41757377616856
:1000A0006C3A2000323A205465747269730D0A006C
:1000B000313A20504F4E470D0A0068656C6C6F2036
:1000C000776F726C64210D0A00201A202020201BFB
:1000D00020202020204578697400202030313233E0
:1000E0003435363738394142434445460D0A0078A5
:1000F0001514157800205554557800384544453876
:10010000003049484930003C4140413C00384140C2
:100110002178007E1515150A00000000000000007F
:1001200000000000000000000000000000000000CF
:100130000000000000000010385410101E000000E5
:100140000000001010101010101010107C10100083
:10015000000000000000000000000000000000009F
:10016000000000000000000000000000000000008F
:1001700000000004027F02040010207F2010001005
:10018000385410101010101054381010181C1C186F
:100190001008183838180800081C3E7F00007F3E01
:1001A0001C080006090909060006497D49060000E9
:1001B000000000000000002F000000000700070002
:1001C00000147F147F1400242A6B2A1200231308C2
:1001D000646200364955225000000503000000000B
:1001E0001C224100000041221C000014083E08149B
:1001F0000008083E08080000503000000008080809
:100200000808000060600000002010080402003EA2
:100210005149453E0000427F40000042615149463D
:10022000002141454B31001814127F10002745452D
:100230004539003C4A49493000030171090700363D
:100240004949493600064949291E00003636000052
:100250000000563600000008142241000014141457
:100260001414000041221408000201510906003252
:100270004979413E007E1111117E007F494949367E
:10028000003E41414122007F4141221C007F4949FB
:100290004941007F09090901003E4149497A007F2F
:1002A0000808087F0000417F4100002040413F01D5
:1002B000007F08142241007F40404040007F020C34
:1002C000027F007F0408107F003E4141413E007FD5
:1002D00009090906003E4151215E007F091929469E
:1002E0000046494949310001017F0101003F40407A
:1002F000403F001F2040201F003F4038403F006328
:100300001408146300070870080700615149454349
:10031000007F41410000000204081020000041411C
:100320007F00000402010204004040404040000001
:1003300001020400002054545478007F484444389B
:1003400000384444442000384444487F0038545422
:10035000541800087E090102000C5252523E007FE0
:10036000080404780000447D4000002040443D0023
:10037000007F102844000000417F4000007C0418EA
:100380000478007C08040478003844444438007C35
:100390001414140800081414187C007C08040408C1
:1003A00000485454542000043F444020003C404046
:1003B000207C001C2040201C003C4038403C004475
:1003C00028102844000C5050503C004464544C44C5
:1003D0000000083641000000007F000000004136A8
:1003E00008000008082A1C0800081C2A08080056F3
:1003F00045524C4F52454E210D0A00544554524926
:1004000053210D0A000011241FBECFEFD0E1DEBF43
:10041000CDBF11E0A0E0B1E0E4E6F6E202C0059055
:100420000D92AE30B107D9F716E0AEE0B1E001C0F1
:100430001D92AD37B107E1F70E9422020C943013F0
:100440000C940000CF93DF9382B1806F82B93B9A06
:10045000439A87B1876087B98AB1806C8AB90E9454
:100460009B030E948A0E0E94E80278940E9459031E
:100470008AEB90E060E00E94FA0488EE93E00E942C
:100480008D030E945903C1E0D0E083E060E040EBBF
:1004900050E020E00E94220583E062E044EA50E060
:1004A00020E00E94220583E064E04AE950E020E079
:1004B0000E9422058C2F0E94DF0884E690E00E94B3
:1004C0008D0380E20E94F802882311F0C2E0D0E0A0
:1004D00080E10E94F802882311F0C1E0D0E080E8BA
:1004E0000E94F802882389F2C130D10521F0C23080
:1004F000D10559F605C00E9459030E94EE0EC5CFE2
:100500000E9459030E94FA0FC0CF1F920F920FB69C
:100510000F9211242F933F938F939F9330910E014D
:1005200020B12095232790911201922390959093CA
:100530001201809111018223892780931101922356
:100540009823292F232720930E01922380910F01B6
:10055000892B80930F01822F807F19F482E380938F
:10056000100180911001815080931001882349F47B
:100570008AE080931001207F80916501822B809317
:1005800065018091610190916201892B49F0809110
:1005900061019091620101979093620180936101E2
:1005A0008091630190916401892B49F080916301EE
:1005B00090916401019790936401809363019F91EE
:1005C0008F913F912F910F900FBE0F901F90189514
:1005D000109262011092610182E084BD85E085BDC8
:1005E00083EC87BDEEE6F0E0808182608083089531
:1005F0002FB7F89490910F018923982790930F01BA
:100600002FBF08952FB7F8949091650189239827FB
:10061000909365012FBF08954FB7F8943FB7F894B2
:1006200020910F0190910E01909589238223282714
:1006300020930F013FBF4FBF08952FB7F8949091BB
:10064000650189239827909365012FBF2FB7F894F0
:1006500090910F018923982790930F012FBF089540
:1006600020910F013FB7F89490916501822789236B
:100670009827909365013FBF9FB7F894822328275E
:1006800020930F019FBF08953FB7F8942091650113
:1006900090910F0190958927822328272093650147
:1006A0003FBF08952C988EBD0DB407FEFDCF2C9A48
:1006B00008951F93CF93DF9380E090E0FC01E85909
:1006C000FE4F1082019624E080309207B9F710EBBC
:1006D0002B98812F0E94520380E10E945203809147
:1006E00067010E9452032B9AC0E0D0E080E00E9494
:1006F00052032196C038D105C9F71F5F183B41F757
:1007000010926C0510926D05DF91CF911F910895A5
:1007100088E893E10197F1F7089520E030E048E898
:1007200053E105C0FA013197F1F72F5F3F4F2817CA
:100730003907C0F3089510926C0510926D058FEF84
:1007400084B98CE58CBD81E08DBD2C9A2A9880E01F
:1007500090E028E833E1F9013197F1F701968A300A
:100760009105C9F72A9A2C982B9880E40E9452038D
:1007700080916701882329F481EA0E94520380EC6A
:1007800004C080EA0E94520388EC0E94520386EA69
:100790000E94520382EA0E9452038FE20E94520397
:1007A00088EF0E94520380E00E94520387E20E9479
:1007B000520381E80E94520386E10E9452038CEAB0
:1007C0000E94520380E00E9452038FEA0E9452036B
:1007D0000E9459030895FF920F931F938C01F62EE8
:1007E0002B98880F892F881F990B919580550E940F
:1007F0005203809167010F77080F802F82958F70C9
:10080000805F0E945203802F8F700E9452032B9AA8
:100810008F2D0E9452031F910F91FF900895CF9347
:10082000DF93C0E0D0E0FE01E851FE4F8081FE0181
:10083000E859FE4F80836081CE010E94EB03219630
:1008400083E0C038D80779F7FE01E859FE4F1082DF
:10085000CE0160E00E94EB03219684E0C030D8070F
:1008600099F7DF91CF910895CF92DF92FF920F9386
:100870001F93CF93DF93F22E4F3DE1F0403E38F4CB
:10088000463D81F04C3D91F0443CA9F407C0463F01
:1008900059F04C3F69F0443E71F402C040E00BC097
:1008A00041E009C042E007C043E005C044E003C0A6
:1008B00045E001C04EE1C62FD0E0D695DC2FCC2715
:1008C000D795C79526E0829FC0011124C80FD91F74
:1008D000D3704F77429F90011124890101511F4F1E
:1008E00045EFC42E40E0D42EC20ED31EF8019491E1
:1008F000F2E0FF16D1F0FF1530F0FF2059F081E053
:10090000F81629F50CC0E3E0FE16A9F0F4E0FF1696
:10091000F1F416C0FE01E859FE4F908318C0FE01A5
:10092000E859FE4F8081892B11C0FE01E859FE4F26
:10093000808189270BC0FE01E859FE4F808105C0E8
:10094000FE01E859FE4F8081909589238083FE0146
:10095000E859FE4F6081CE010E94EB030F5F1F4FED
:1009600021960C151D0509F0C1CFDF91CF911F9184
:100970000F91FF90DF90CF90089580916D058F5F6C
:1009800080936D05883028F00E940F0487E08093E3
:100990006D0508951F93CF93DF93EC01162F19C0B7
:1009A0004A3019F04D3021F411C00E94BD0410C02E
:1009B00080916C0560916D05212F0E943404809117
:1009C0006C058F5F80936C05853110F010926C057B
:1009D0002196FE014491442319F7DF91CF911F9195
:1009E000089580936C0560936D05CA01622F0E9483
:1009F000CA0408951F93CF93DF93EC01162F1AC0FA
:100A00004A30A9F04D3019F410926C0512C0809153
:100A10006C0560916D05212F0E94340480916C0556
:100A20008F5F80936C05853120F010926C050E94D9
:100A3000BD042196FE014491442311F7DF91CF912B
:100A40001F91089580936C0560936D05CA01622F14
:100A50000E94FA0408951F93CF93DF93EC01162FA1
:100A60001AC04A30A9F04D3019F410926C0512C02A
:100A700080916C0560916D05212F0E943404809156
:100A80006C058F5F80936C05853120F010926C05AA
:100A90000E94BD0421964881442319F7DF91CF912C
:100AA0001F91089580936C0560936D05CA01622FB4
:100AB0000E942B050895CF93DF93EC0113C0809122
:100AC0006C0560916D0520E00E94340480916C05F6
:100AD0008F5F80936C05843120F010926C050E942A
:100AE000BD0421964881442351F7DF91CF910895A9
:100AF00080936C0560936D05CA010E945B050895A3
:100B0000982F87FD3AC06034C0F5862F869586956C
:100B10008695282F30E03695322F22273795279556
:100B2000290F311D677081E090E0582F01C0550FEB
:100B30006A95EAF7652F3370413061F0413018F063
:100B40004230A1F40DC0F901E859FE4F8081609553
:100B500086230BC0F901E859FE4F8081852B05C023
:100B6000F901E859FE4F808185278083F901E85912
:100B7000FE4F6081C9010E94EB0308952F923F92BE
:100B80004F925F926F927F928F929F92AF92BF929D
:100B9000CF92DF92EF92FF920F931F93DF93CF9349
:100BA000CDB7DEB729970FB6F894DEBF0FBECDBF25
:100BB0008E83A62E0F83482E5524662E7724842FED
:100BC00090E09D838C8384199509E22FF0E0FB83EC
:100BD000EA83AF014619570997FF04C022242A94DB
:100BE000322C06C09C01009711F021E030E0190181
:100BF00057FF04C088248A94982C07C09A01411595
:100C0000510511F021E030E049016C0197FF04C06B
:100C1000D094C194D108D3947A0157FF04C0F094C2
:100C2000E194F108F3948E816A2D4F810E94800532
:100C3000EC14FD04A4F5C60162E070E00E94D61237
:100C400022273327261B370B39872887A22CB22C63
:100C5000B40C00E010E03E81432E552417C04885B7
:100C600059854E0D5F1D598748871416150634F4B3
:100C7000680C791C4C195D09598748878B2D662DA6
:100C80004F810E948005020D131DBA0CC801840D0E
:100C9000951DEC81FD818E179F0709F733C0C701B1
:100CA00062E070E00E94D61222273327261B370B02
:100CB000398728878982B82CB60C00E010E06A2CAE
:100CC000772418C0488559854C0D5D1D5987488784
:100CD0001416150634F4420C531C4E195F0959873B
:100CE0004887842D6B2D4F810E948005080D191DAA
:100CF0005981B50EC801860D971DEA81FB818E17BB
:100D00009F0701F729960FB6F894DEBF0FBECDBF3F
:100D1000CF91DF911F910F91FF90EF90DF90CF90D7
:100D2000BF90AF909F908F907F906F905F904F900B
:100D30003F902F900895BF92CF92DF92EF92FF9253
:100D40000F931F93CF93DF93182FB02E87FD1FE7CC
:100D5000603408F06FE3C42EDD24862F90E0820F0C
:100D6000911DC10ED11C21E8C216D10418F0F0E883
:100D7000CF2ED12C7C0181E4E816F10418F0E0E4D8
:100D8000EE2EF12CC62FD0E008C0812F6C2F4C2DF9
:100D90002C2F0B2D0E94BE052196EC16FD06A8F700
:100DA000DF91CF911F910F91FF90EF90DF90CF9047
:100DB000BF900895DF92EF92FF920F931F93CF930E
:100DC000DF93F82ED02E87FF02C0AFE7FA2E162F42
:100DD000603408F01FE350E0C12FD0E0C20FD11DF6
:100DE0004F0D511D4138510510F040E850E0E42E00
:100DF0008F2D612F212F0D2D0E94BE05C134D105ED
:100E000010F0C0E4D0E08E2D612F4E2D2C2F0D2D33
:100E10000E94BE058E2D6C2F4F2D2C2F0E94BE05DB
:100E20008F2D6C2F4F2D212F0E94BE05DF91CF916A
:100E30001F910F91FF90EF90DF9008952F923F92B6
:100E40004F925F926F927F928F929F92AF92BF92DA
:100E5000CF92DF92EF92FF920F931F93CF93DF9386
:100E6000682E762E8A01C22EC1E0D0E0C41BD50BBD
:100E7000CA01880F991F22243324281A390A642FA3
:100E8000670D862D4C2D0E948005672D601B862DD9
:100E90004C2D0E948005802F860D672D4C2D0E94C1
:100EA0008005862D801B672D4C2D0E9480054801F2
:100EB000AA24BB24B3E04B2E512C4DC0D7FD09C052
:100EC00008948108910882E090E0280E391EC20D36
:100ED000D31D0894A11CB11CC40DD51DDA2CD60C51
:100EE000182D170D8D2D612F4C2D0E948005E62C9D
:100EF000EA188E2D612F4C2D0E948005172D181990
:100F00008D2D612F4C2D0E9480058E2D612F4C2D33
:100F10000E948005E82CE60C1A2D170D8E2D612FEE
:100F20004C2D0E948005962D9819092F892F612F2D
:100F30004C2D0E948005172D1A198E2D612F4C2DD6
:100F40000E948005802F612F4C2D0E94800582E039
:100F500090E0480E591EA814B9040CF4AFCFDF91ED
:100F6000CF911F910F91FF90EF90DF90CF90BF90A6
:100F7000AF909F908F907F906F905F904F903F9039
:100F80002F9008952F923F924F925F927F928F926F
:100F90009F92AF92BF92CF92DF92EF92FF920F9308
:100FA0001F93CF93DF93782EC62E7A01C1E0D0E055
:100FB000C41BD50BCA01880F991F22243324281A79
:100FC000390A6E2D6C0D2C2D2E19872D472D01E021
:100FD0000E94BE05472D4E198E2D870D6C2D2C2D90
:100FE0000E94BE054701AA24BB2433E0432E512CA6
:100FF0003AC0D7FD09C008948108910882E090E0CA
:10100000280E391EC20DD31D0894A11CB11CC40D9D
:10101000D51DEA2CE70CD72CDA18282D2C0D8E2D97
:10102000622F4D2D01E00E94BE052C2D28198E2D1A
:10103000622F4D2D0E94BE05E82CE70C972D9819C4
:10104000192F2A2D2C0D8E2D622F492F0E94BE059F
:101050002C2D2A198E2D622F412F0E94BE0582E071
:1010600090E0480E591EA814B9041CF2DF91CF91EC
:101070001F910F91FF90EF90DF90CF90BF90AF90B6
:101080009F908F907F905F904F903F902F9008950A
:10109000CF92DF92EF92FF920F931F93CF93DF9344
:1010A000082F0E9459038AED90E060E00E94FA0444
:1010B00010926C0587E080936D0589EC90E060E00C
:1010C0000E94CA0482E080936D0510E07801EE0C66
:1010D000FF1CEE0CFF1C0F5F1F4F6801CC0CDD1CCA
:1010E000CC0CDD1C015010400295000F000F007C5D
:1010F00012E02EC08AE0E816F1041CF44E2D405D8B
:1011000002C04E2D495C80E060916D0520E00E9498
:10111000340410936C05C0E0D0E0402F4C0F809158
:101120006C0560916D0520E00E94340480916C058F
:101130008F5F80936C052196C031D10571F7809146
:101140006D058F5F80936D050894E11CF11C005FB5
:10115000EC14FD047CF2DF91CF911F910F91FF9071
:10116000EF90DF90CF9008958A3010F4805D08955D
:10117000895C08950F931F93142F022F60936D05C0
:101180008F5F80936C05815042954F704A3010F408
:10119000405D01C0495C202F0E94340480916C05A1
:1011A00060916D05412F4F704A3010F4405D01C0D1
:1011B000495C202F0E9434041F910F910895FF92E3
:1011C0000F931F93CF93DF93F82E14E620E0C0E037
:1011D000D0E08F2D612F0E94B612082F882321F4B2
:1011E000222311F4113071F480916C058F5F80938C
:1011F0006C058150402F405D60916D0520E00E949C
:10120000340421E0812F6AE00E94B612982F2196C3
:10121000C330D10531F0019F802D1124F81A192F08
:10122000D8CFDF91CF911F910F91FF9008958093B8
:101230006C0560936D05842F0E94DF080895BF92AE
:10124000CF92DF92EF92FF920F931F93CF93DF9392
:10125000082FB62E7A0114E6C0E0D0E0C701612F56
:1012600070E00E94C212C62E812F8A508A3048F444
:10127000D02ED394802F6B2D4EE220E00E943404B8
:101280000D2D4C2D405D802F6B2D20E00E943404ED
:10129000812F6AE00E94B612282F2196C330D10513
:1012A00041F00F5FC19EC0011124E81AF90A122F04
:1012B000D5CFDF91CF911F910F91FF90EF90DF90ED
:1012C000CF90BF9008957F928F929F92AF92BF92DE
:1012D000CF92DF92EF92FF920F931F93DF93CF9302
:1012E000CDB7DEB727970FB6F894DEBF0FBECDBFE0
:1012F000882EC62ECA017901702E8E010F5F1F4FF6
:10130000B8014AE050E00E94E912F8010190002083
:10131000E9F731979E2E901A092D10E0E016F1069C
:101320002CF0DD245701A01AB10A1EC010E007C03E
:10133000822F6C2D4AE220E00E9434041F5F212F8F
:10134000280D812F90E08E159F0594F34CC07720D7
:1013500021F08F2D6C2D40E303C08F2D6C2D40E2CA
:1013600020E00E943404D394FD2CF80C8D2D90E0E5
:101370008A159B0564F3FE01E00FF11F00811082C6
:1013800081E0981619F48F2D81500EC082E09816D6
:1013900089F489818D3271F48F2D81506C2D4DE24D
:1013A00020E00E9434048F2D6C2D40E320E00E9449
:1013B000340409C0F0926C05C0926D05CE0101960F
:1013C00060E00E942B05192D11501F0D812F6C2DEF
:1013D0004EE220E00E943404812F8F5F6C2D402F5D
:1013E00020E00E94340427960FB6F894DEBF0FBEAB
:1013F000CDBFCF91DF911F910F91FF90EF90DF90C4
:10140000CF90BF90AF909F908F907F9008957F92E4
:101410008F929F92AF92BF92CF92DF92EF92FF9204
:101420000F931F93DF93CF93CDB7DEB727970FB6F8
:10143000F894DEBF0FBECDBF882EC62ECA0179013B
:10144000702E8E010F5F1F4FB8014AE050E00E94DE
:10145000E912F80101900020E9F731979E2E901AC9
:10146000092D10E0E016F1062CF0DD245701A01A3A
:10147000B10A1EC010E007C0822F6C2D4AE220E0A6
:101480000E9434041F5F212F280D812F90E08E15BC
:101490009F0594F34CC0772021F08F2D6C2D40E3F5
:1014A00003C08F2D6C2D40E220E00E943404D394C1
:1014B000FD2CF80C8D2D90E08A159B0564F3FE0140
:1014C000E00FF11F0081108281E0981619F48F2D32
:1014D00081500EC082E0981689F489818D3271F4B2
:1014E0008F2D81506C2D4DE220E00E9434048F2D11
:1014F0006C2D40E320E00E94340409C0F0926C059A
:10150000C0926D05CE01019660E00E942B05192D59
:1015100011501F0D812F6C2D4EE220E00E943404EB
:10152000812F8F5F6C2D402F20E00E94340427967E
:101530000FB6F894DEBF0FBECDBFCF91DF911F91E4
:101540000F91FF90EF90DF90CF90BF90AF909F9062
:101550008F907F900895BF92CF92DF92EF92FF928B
:101560000F931F93DF93CF93CDB7DEB727970FB6B7
:10157000F894DEBF0FBECDBFC82ED62ECA017901AA
:10158000B02E8E010F5F1F4FB8014AE050E00E945D
:10159000E912F80101900020E9F73197E01B2E2FA6
:1015A00030E0E216F30624F000E0E21AF30A1EC06F
:1015B00000E007C0822F6D2D4AE220E00E94340433
:1015C0000F5F202F2C0D802F90E08E159F0594F338
:1015D0001DC0BB2021F0822F6D2D40E303C0822F60
:1015E0006D2D40E220E00E9434040F5F202F2C0D6F
:1015F000802F90E08E159F0564F320936C05D092A8
:101600006D05CE01019660E00E942B0527960FB66E
:10161000F894DEBF0FBECDBFCF91DF911F910F9128
:10162000FF90EF90DF90CF90BF900895BF92CF9240
:10163000DF92EF92FF920F931F93DF93CF93CDB77B
:10164000DEB727970FB6F894DEBF0FBECDBFC82E0A
:10165000D62ECA017901B02E8E010F5F1F4FB8013F
:101660004AE050E00E940A13F80101900020E9F7D7
:101670003197E01B2E2F30E0E216F30624F000E055
:10168000E21AF30A1EC000E007C0822F6D2D4AE265
:1016900020E00E9434040F5F202F2C0D802F90E05B
:1016A0008E159F0594F31DC0BB2021F0822F6D2D58
:1016B00040E303C0822F6D2D40E220E00E943404FD
:1016C0000F5F202F2C0D802F90E08E159F0564F367
:1016D00020936C05D0926D05CE01019660E00E94CA
:1016E0002B0527960FB6F894DEBF0FBECDBFCF9166
:1016F000DF911F910F91FF90EF90DF90CF90BF90FF
:1017000008952F923F924F925F926F927F928F92A5
:101710009F92AF92BF92CF92DF92EF92FF920F9380
:101720001F93DF93CF93CDB7DEB72F970FB6F89403
:10173000DEBF0FBECDBF8C876D876A0159010B8755
:10174000449F9001459F300D549F300D11243E83DE
:101750002D83AA9CC001AB9C900DBA9C900D1124C6
:101760009C838B83A29E4001A39E900CB29E900C02
:101770001124BC0168197909882777FD8095982F75
:101780000E9409117B018C01ED81FE81BF01882738
:1017900077FD8095982F0E94091120E030E040E805
:1017A0005EE30E94CE119B01AC01C801B7010E940B
:1017B00007100E9431120E94D6102B019401220FB3
:1017C000331F3A8329836D856A0D8C854B850E9472
:1017D00080056D856A198C854B850E9480058C85F6
:1017E0008C0D6D854B850E9480058C858C196D85CF
:1017F0004B850E9480058D819E81880F991FEE2761
:10180000FF27E81BF90BFA87E9872B813C81220F20
:10181000331F38872F8349018B819C81880E991E45
:10182000222433246624772438C057FC0DC0089442
:10183000A108B108E981FA8129853A85E20FF31FF1
:10184000FA83E9834E1A5F0A0894611C711C8F8128
:101850009885280E391E480C591C0C85060DED8400
:10186000EA0C802F6E2D4B850E948005FD84FA18AE
:10187000802F6F2D4B850E9480051C851619812FA6
:101880006E2D4B850E948005812F6F2D4B850E9408
:101890008005EF81F8858E0E9F1E29813A812216E0
:1018A00033061CF2B301882777FD8095982F0E949C
:1018B000091120E030E040E05FE30E9407107B0167
:1018C0008C0165010894C108D108EB81FC81BF013E
:1018D000882777FD8095982F0E940911A80197010C
:1018E0000E94CE11A80197010E94CE117B018C01AC
:1018F000CC9CC001CD9C900DDC9C900D11242D81C1
:101900003E81829FB001839F700D929F700D1124C4
:10191000882777FD8095982F0E9409119B01AC01C3
:10192000C801B7010E9407107B018C018B819C814B
:10193000ED81FE818E9FB0018F9F700D9E9F700D77
:101940001124882777FD8095982F0E9409119B010B
:10195000AC01C801B7010E9406100E9431120E941A
:10196000D6105B01460149845A8450944194510831
:1019700053942D813E8189859A85281B390BE981F5
:10198000FA812E1B3F0B3F872E8735C01A141B048C
:101990004CF00894611C711C2F813885220E331E77
:1019A000A20CB31C8E859F85A80EB91E0C85060D52
:1019B000ED84E80C802F6E2D4B850E948005FD8400
:1019C000F818802F6F2D4B850E9480051C851619F5
:1019D000812F6E2D4B850E948005812F6F2D4B85A9
:1019E0000E948005089481089108EE85FF85E40D2A
:1019F000F51DFF87EE87C40101961816190634F20B
:101A00002F960FB6F894DEBF0FBECDBFCF91DF91FA
:101A10001F910F91FF90EF90DF90CF90BF90AF900C
:101A20009F908F907F906F905F904F903F902F90FE
:101A300008950F93FA01022F4D5F5F4F9F010E949F
:101A4000810B0F9108952F923F924F925F926F9268
:101A50007F928F929F92AF92BF92CF92DF92EF923E
:101A6000FF920F931F93DF93CF930F92CDB7DEB703
:101A7000382E262E4983422EB8010E2D80E090E0AC
:101A80000E9407112BED3FE049E450E40E94CE1183
:101A900020E030E044E353E40E946E106B017C01CF
:101AA000C7010E946B104B015C015524662477240A
:101AB000C301B2010E9407119B01AC01C501B40131
:101AC0000E94CE110E9431124B015C01B601C70188
:101AD0000E9451126B017C012981622F70E080E02D
:101AE00090E00E9407119B01AC01C701B6010E9462
:101AF000CE110E9431120E94DB10132D160FC5016A
:101B0000B4010E94DB10222D261B832D622D412F54
:101B10000E94BE050F90CF91DF911F910F91FF9012
:101B2000EF90DF90CF90BF90AF909F908F907F907D
:101B30006F905F904F903F902F900895EF920F938A
:101B40001F93942FF901E02E4D5F292F8F010E94E2
:101B5000230D1F910F91EF9008952F923F924F9276
:101B60005F926F927F928F929F92AF92BF92CF922D
:101B7000DF92EF92FF920F931F93382E262E442E62
:101B800040E050E0CA01B9010E9407112BED3FE08F
:101B900049E450E40E94CE1120E030E044E353E4F5
:101BA0000E946E106B017C01C7010E946B104B01FB
:101BB0005C01552466247724C301B2010E940711F9
:101BC0002B013C01C501B401A30192010E94CE1179
:101BD0000E9431124B015C01B601C7010E945112F3
:101BE000A30192010E94CE110E9431120E94DB10CB
:101BF000132D160FC501B4010E94DB10222D261BE8
:101C0000832D622D412F0E94BE051F910F91FF90E1
:101C1000EF90DF90CF90BF90AF909F908F907F908C
:101C20006F905F904F903F902F900895DC0120912E
:101C30005D0130915E0180915F01909160012817F4
:101C4000390711F480E00895E0915F01F09160019F
:101C500080818C9380915F019091600101969093B7
:101C6000600180935F0180915F01909160018D55CB
:101C7000914011F081E008958DE191E09093600131
:101C800080935F0181E008951F920F920FB60F922B
:101C900011242F933F934F938F939F93EF93FF9331
:101CA0004091C60020915D0130915E0180915F01FD
:101CB00090916001281B390B37FF02C0205C3F4F19
:101CC0002F333105DCF4E0915D01F0915E0140833A
:101CD00080915D0190915E01019690935E018093E9
:101CE0005D0180915D0190915E018D55914031F4CF
:101CF0008DE191E090935E0180935D01FF91EF9102
:101D00009F918F914F913F912F910F900FBE0F9008
:101D10001F9018951092C5008AE08093C4008091AE
:101D2000C0008D7F8093C00086E08093C2008091C8
:101D3000C1008B7F8093C10002C08091C60080915A
:101D4000C00087FDFACF8091C10088618093C100F7
:101D50008091C10080688093C1008DE191E09093F3
:101D6000600180935F0180915F0190916001909389
:101D70005E0180935D010895E1ECF0E08081877F52
:101D8000808323982B980895239A2B98E1ECF0E018
:101D90008081886080830895982F8091C00085FF9E
:101DA000FCCF9093C6000895FC0107C08091C0004D
:101DB00085FFFCCF9093C600319690819923B1F7AF
:101DC0000895FC0107C08091C00085FFFCCF90936F
:101DD000C600319694919923B1F708952F923F92BE
:101DE0004F925F926F927F928F929F92AF92BF922B
:101DF000CF92DF92EF92FF920F93DF93CF9300D0B9
:101E000000D000D0CDB7DEB78AE090E09C838B8312
:101E1000E1E0F0E0FA83E983B7E1AB2EB12CAAE26E
:101E2000EA2EF12CF3E0CF2ED12CE1E08E2E912C76
:101E30008BE190E09E838D837BEF672E7FEF772E83
:101E40006A0C7B1C10C0141415042CF4ED81FE8167
:101E50003197FE83ED836AE0262E312C8D819E81A1
:101E6000280E391E2C0180E10E940203882359F7B5
:101E700011C090E4291631042CF4ED81FE813196D5
:101E8000FE83ED835AE0252E312C8D819E81280E14
:101E9000391E2C0180E20E940203882351F70D8134
:101EA0008091000190910101892B51F083E060E065
:101EB000442D0E94170985E060E0422D0E94170919
:101EC0008AE0602F42E02AE001E00E949B068091B8
:101ED000000190910101892B79F087E060E04CE0EE
:101EE0000E9417098AE060E0462D0E9417098DE0E4
:101EF00060E04E2D0E941709E214F3045CF44E14C6
:101F00005F0444F49DE06916710424F4D094C194F4
:101F1000D108D394EBE7AE16B10424F0D094C19469
:101F2000D108D3941614170414F4C7011FC08B8171
:101F30009C8101979C838B83892B69F482E063E009
:101F40004FEE53E020E00E94220588E893E10E94D2
:101F50008D031A82198247E1A42EB12C8AE290E007
:101F600033E0C32ED12C21E0822E912CEBE3EE1630
:101F7000F10424F4F6E0EF16F10424F49094819433
:101F800091089394AC0CBD1C7401E80EF91EC501B8
:101F9000B70145E050E00E94C20780E060E04B815D
:101FA0000E94170984E690E00E948D030E94590365
:101FB00089819A81892B09F03FCF85E060E047E174
:101FC0000E94170926960FB6F894DEBF0FBECDBF4C
:101FD000CF91DF910F91FF90EF90DF90CF90BF9066
:101FE000AF909F908F907F906F905F904F903F90B9
:101FF0002F90089584E062E04BEF53E020E00E94D0
:10200000220588EE93E00E948D0308955058BB2767
:10201000AA270ED078C141D130F046D120F031F45A
:102020009F3F11F41EF436C10EF4E095E7FB2CC17E
:10203000E92F8BD180F3BA176207730784079507DE
:1020400018F071F49EF5A3C10EF4E0950B2EBA2F93
:10205000A02D0B01B90190010C01CA01A0011124AE
:10206000FF27591B99F0593F50F4503E68F11A165A
:10207000F040A22F232F342F4427585FF3CF4695EB
:1020800037952795A795F0405395C9F77EF41F160D
:10209000BA0B620B730B840BBAF09150A1F0FF0FD7
:1020A000BB1F661F771F881FC2F70EC0BA0F621FC3
:1020B000731F841F48F4879577956795B795F795B3
:1020C0009E3F08F0B3CF9395880F08F09927EE0F45
:1020D000979587950895F0D0E39526C10CD013C14C
:1020E000E3D040F0DAD030F021F45F3F19F0CCC0FB
:1020F00051114EC1CFC029D198F39923C9F355236B
:10210000B1F3951B550BBB27AA27621773078407EA
:1021100038F09F5F5F4F220F331F441FAA1FA9F3A0
:1021200033D00E2E3AF0E0E830D091505040E69592
:10213000001CCAF729D0FE2F27D0660F771F881FF3
:10214000BB1F261737074807AB07B0E809F0BB0BE2
:10215000802DBF01FF2793585F4F2AF09E3F510506
:1021600068F092C015C15F3FECF3983EDCF38695B2
:1021700077956795B795F7959F5FC9F7880F911D7C
:102180009695879597F90895E1E0660F771F881F68
:10219000BB1F621773078407BA0720F0621B730B1B
:1021A000840BBA0BEE1F88F7E095089504D068946D
:1021B000B111EEC00895D1D088F09F5790F0B92F9B
:1021C0009927B751A0F0D1F0660F771F881F991F8C
:1021D0001AF0BA95C9F712C0B13081F0D8D0B1E089
:1021E0000895D5C0672F782F8827B85F39F0B93F99
:1021F000CCF3869577956795B395D9F73EF490958E
:102200008095709561957F4F8F4F9F4F0895E8940B
:1022100009C097FB3EF490958095709561957F4F2E
:102220008F4F9F4F9923A9F0F92F96E9BB279395DC
:10223000F695879577956795B795F111F8CFFAF4EC
:10224000BB0F11F460FF1BC06F5F7F4F8F4F9F4F1D
:1022500016C0882311F096E911C0772321F09EE87B
:10226000872F762F05C0662371F096E8862F70E0E1
:1022700060E02AF09A95660F771F881FDAF7880FBB
:102280009695879597F9089597F99F6780E870E08C
:1022900060E008959FEF80EC089500240A941616DC
:1022A000170618060906089500240A941216130644
:1022B000140605060895EECF50D0E8F3E894E0E068
:1022C000BB279F57F0F02AED3FE049EC06C0EE0F28
:1022D000BB0F661F771F881F28F0B23A620773078B
:1022E000840728F0B25A620B730B840BE3959A951E
:1022F00072F7803830F49A95BB0F661F771F881FDE
:10230000D2F79048F1C0092E0394000C11F48823F1
:1023100052F0BB0F40F4BF2B11F460FF04C06F5F9D
:102320007F4F8F4F9F4F0895EF93E0FF06C0A2EAC3
:102330002AED3FE049EC5FEB7BDEE5DF0F90039495
:1023400001FC9058ECE7F0E0DBC057FD9058440FDB
:10235000551F59F05F3F71F04795880F97FB991F04
:1023600061F09F3F79F087950895121613061406C1
:10237000551FF2CF4695F1DF08C01616170618064E
:10238000991FF1CF86957105610508940895E89429
:10239000BB2766277727CB0197F908950BD0B3CFDA
:1023A0007CDF28F081DF18F0952309F06DCF72CF24
:1023B0001124EECFCADFA0F3959FD1F3950F50E023
:1023C000551F629FF001729FBB27F00DB11D639FE7
:1023D000AA27F00DB11DAA1F649F6627B00DA11D8D
:1023E000661F829F2227B00DA11D621F739FB00D33
:1023F000A11D621F839FA00D611D221F749F3327A3
:10240000A00D611D231F849F600D211D822F762F3B
:102410006A2F11249F5750408AF0E1F088234AF038
:10242000EE0FFF1FBB1F661F771F881F9150504084
:10243000A9F79E3F510570F027CFAACF5F3FECF37D
:10244000983EDCF3869577956795B795F795E79570
:102450009F5FC1F7FE2B880F911D9695879597F981
:1024600008957BDFE0F09E37D8F09639B8F49E38B7
:1024700048F4672F782F8827985FF9CF869577954E
:10248000679593959539D0F3B62FB1706B0F711D89
:10249000811D20F4879577956795939508C022C094
:1024A00077CF9F9309DF0F9007FCEE5F3DCF882326
:1024B00071F4772321F09850872B762F07C066237D
:1024C00011F499270DC09051862B70E060E02AF03E
:1024D0009A95660F771F881FDAF7880F969587956C
:1024E00097F908959F3F31F0915020F487957795A3
:1024F0006795B795880F911D9695879597F90895DB
:102500009F938F937F936F93FF93EF939B01AC0106
:1025100045DFEF91FF9105D02F913F914F915F9152
:102520003DCFDF93CF931F930F93FF92EF92DF92F4
:102530007B018C01689405C0DA2EEF013BDFFE01C0
:10254000E894A5912591359145915591AEF3EF0110
:102550006FDDFE019701A801DA9479F7DF90EF9023
:10256000FF900F911F91CF91DF910895991B79E012
:1025700004C0991F961708F0961B881F7A95C9F713
:1025800080950895AA1BBB1B51E107C0AA1FBB1F62
:10259000A617B70710F0A61BB70B881F991F5A95EF
:1025A000A9F780959095BC01CD01089597FB092E60
:1025B00007260AD077FD04D0E5DF06D000201AF404
:1025C000709561957F4F0895F6F7909581959F4F8F
:1025D0000895FB019F01E8944230C4F04532B4F401
:1025E0004A3029F497FB1EF4909581959F4F642FF4
:1025F00077270E94C212805D8A330CF0895D819337
:10260000CB010097A1F716F45DE251931082C90146
:102610000C942013FB019F01423074F0453264F4A6
:10262000642F77270E94C212805D8A330CF0895D87
:102630008193CB010097A1F71082C9010C9420135C
:10264000DC01FC01672F71917723E1F7329704C019
:102650007C916D9370836291AE17BF07C8F30895A4
:04266000F894FFCF1C
:0E26640001006A18380171023801710201008C
:00000001FF
